{"abi":[{"type":"constructor","inputs":[{"name":"_manager","type":"address","internalType":"contract IPoolManager"}],"stateMutability":"nonpayable"},{"type":"function","name":"manager","inputs":[],"outputs":[{"name":"","type":"address","internalType":"contract IPoolManager"}],"stateMutability":"view"},{"type":"function","name":"poolManager","inputs":[],"outputs":[{"name":"","type":"address","internalType":"contract IPoolManager"}],"stateMutability":"view"},{"type":"function","name":"swap","inputs":[{"name":"key","type":"tuple","internalType":"struct PoolKey","components":[{"name":"currency0","type":"address","internalType":"Currency"},{"name":"currency1","type":"address","internalType":"Currency"},{"name":"fee","type":"uint24","internalType":"uint24"},{"name":"tickSpacing","type":"int24","internalType":"int24"},{"name":"hooks","type":"address","internalType":"contract IHooks"}]},{"name":"params","type":"tuple","internalType":"struct SwapParams","components":[{"name":"zeroForOne","type":"bool","internalType":"bool"},{"name":"amountSpecified","type":"int256","internalType":"int256"},{"name":"sqrtPriceLimitX96","type":"uint160","internalType":"uint160"}]},{"name":"hookData","type":"bytes","internalType":"bytes"}],"outputs":[{"name":"delta","type":"int256","internalType":"BalanceDelta"}],"stateMutability":"payable"},{"type":"function","name":"unlockCallback","inputs":[{"name":"rawData","type":"bytes","internalType":"bytes"}],"outputs":[{"name":"","type":"bytes","internalType":"bytes"}],"stateMutability":"nonpayable"},{"type":"error","name":"DeltaNotNegative","inputs":[{"name":"currency","type":"address","internalType":"Currency"}]},{"type":"error","name":"DeltaNotPositive","inputs":[{"name":"currency","type":"address","internalType":"Currency"}]},{"type":"error","name":"InsufficientBalance","inputs":[]},{"type":"error","name":"NoSwapOccurred","inputs":[]},{"type":"error","name":"NotPoolManager","inputs":[]}],"bytecode":{"object":"0x60c03460ab57601f61139338819003918201601f19168301916001600160401b0383118484101760af5780849260209460405283398101031260ab57516001600160a01b038116810360ab578060805260a0526040516112cf90816100c4823960805181818161032f015281816105c101528181610af701528181610f5f015261105d015260a051818181610518015281816109a701528181610ded015281816110df01526111700152f35b5f80fd5b634e487b7160e01b5f52604160045260245ffdfe6080806040526004361015610012575f80fd5b5f3560e01c908163481c6a7514610aaf5750806391dd73461461053c578063dc4c90d3146104ce5763f3cd914c14610048575f80fd5b7ffffffffffffffffffffffffffffffffffffffffffffffffffffffffffffffffc360161012081126104455760a0136104455760405161008781610bc3565b60043573ffffffffffffffffffffffffffffffffffffffff8116810361044557815260243573ffffffffffffffffffffffffffffffffffffffff8116810361044557602082015260443562ffffff811681036104455760408201526064358060020b810361044557606082015260843573ffffffffffffffffffffffffffffffffffffffff8116810361044557608082015260607fffffffffffffffffffffffffffffffffffffffffffffffffffffffffffffff5c360112610445576040519061015082610ba7565b60a435801515810361044557825260c435602083015260e43573ffffffffffffffffffffffffffffffffffffffff811681036104455760408301526101043567ffffffffffffffff8111610445576102da5f926102ae610315956102996101d073ffffffffffffffffffffffffffffffffffffffff963690600401610c7b565b91610261604051956101e187610b5e565b3387526020870190815260408701928352606087019485526040519889976020808a01525116604088015251606087019073ffffffffffffffffffffffffffffffffffffffff6080809282815116855282602082015116602086015262ffffff6040820151166040860152606081015160020b6060860152015116910152565b518051151561010086015260208101516101208601526040015173ffffffffffffffffffffffffffffffffffffffff16610140850152565b51610140610160840152610180830190610b1b565b037fffffffffffffffffffffffffffffffffffffffffffffffffffffffffffffffe08101835282610bdf565b604051809381927f48c89491000000000000000000000000000000000000000000000000000000008352602060048401526024830190610b1b565b03818373ffffffffffffffffffffffffffffffffffffffff7f0000000000000000000000000000000000000000000000000000000000000000165af19081156104c3575f91610449575b506020815191818082019384920101031261044557514780610387575b602082604051908152f35b5f80808093335af11561039a575f61037c565b7fffffffffffffffffffffffffffffffffffffffffffffffffffffffffffffffe0601f3d0116604051907f90bfb8650000000000000000000000000000000000000000000000000000000082523360048301525f6024830152608060448301528060a00160648301523d60848301523d5f60a484013e7ff4b3b1bc0000000000000000000000000000000000000000000000000000000060c4828401600460a4820152015260e40190fd5b5f80fd5b90503d805f833e61045a8183610bdf565b8101906020818303126104455780519067ffffffffffffffff8211610445570181601f820112156104455780519061049182610c41565b9261049f6040519485610bdf565b8284526020838301011161044557815f9260208093018386015e830101525f61035f565b6040513d5f823e3d90fd5b34610445575f7ffffffffffffffffffffffffffffffffffffffffffffffffffffffffffffffffc36011261044557602060405173ffffffffffffffffffffffffffffffffffffffff7f0000000000000000000000000000000000000000000000000000000000000000168152f35b346104455760207ffffffffffffffffffffffffffffffffffffffffffffffffffffffffffffffffc3601126104455760043567ffffffffffffffff8111610445573660238201121561044557806004013567ffffffffffffffff811161044557810190602482013681116104455773ffffffffffffffffffffffffffffffffffffffff7f00000000000000000000000000000000000000000000000000000000000000001691823303610445576020818503126104455760248101359067ffffffffffffffff821161044557019161014083850312610445576040519261062284610b5e565b61062e60248201610c20565b845260a07fffffffffffffffffffffffffffffffffffffffffffffffffffffffffffffffe08287030112610445576040519461066986610bc3565b61067560448301610c20565b865261068360648301610c20565b6020870152608482013562ffffff8116810361044557604087015260a48201358060020b810361044557606087015260c482013573ffffffffffffffffffffffffffffffffffffffff81168103610445577fffffffffffffffffffffffffffffffffffffffffffffffffffffffffffffff1c8360609360249360808b015260208901998a5203010112610445576040519261071d84610ba7565b60e48201358015158103610445578452610104820135602085015261012482013573ffffffffffffffffffffffffffffffffffffffff81168103610445576040850152604085019384526101448201359167ffffffffffffffff83116104455761078a9201602401610c7b565b606084019081528251805115801596929190610a875782519073ffffffffffffffffffffffffffffffffffffffff60208184511693015116975b60208201515f81121561093a57505050915f60209492610816610894979561081173ffffffffffffffffffffffffffffffffffffffff8b511661080a8a8a510151610d74565b9083610dcd565b6110d8565b92519473ffffffffffffffffffffffffffffffffffffffff604061083e835151151596610d74565b9251015116906040519461085186610ba7565b85528785015260408401525193604051968795869485937ff3cd914c00000000000000000000000000000000000000000000000000000000855260048501610cd0565b03925af19081156104c3575f91610906575b506109029273ffffffffffffffffffffffffffffffffffffffff6108d6929351166108d0826110d8565b91611151565b604051906020820152602081526108ee604082610bdf565b604051918291602083526020830190610b1b565b0390f35b90506020813d602011610932575b8161092160209383610bdf565b8101031261044557516109026108a6565b3d9150610914565b6109749693999750935f91929473ffffffffffffffffffffffffffffffffffffffff60406020985197015116906040519461085186610ba7565b03925af19081156104c3575f91610a55575b509173ffffffffffffffffffffffffffffffffffffffff8151166109cb85307f0000000000000000000000000000000000000000000000000000000000000000611210565b5f8113610a135791610a036109029673ffffffffffffffffffffffffffffffffffffffff936109fd610a0e9796610d74565b91610dcd565b51166108d0826110d8565b6108d6565b73ffffffffffffffffffffffffffffffffffffffff867f3351b260000000000000000000000000000000000000000000000000000000005f521660045260245ffd5b90506020813d602011610a7f575b81610a7060209383610bdf565b81010312610445575184610986565b3d9150610a63565b82519073ffffffffffffffffffffffffffffffffffffffff80602084015116925116976107c4565b34610445575f7ffffffffffffffffffffffffffffffffffffffffffffffffffffffffffffffffc3601126104455760209073ffffffffffffffffffffffffffffffffffffffff7f0000000000000000000000000000000000000000000000000000000000000000168152f35b907fffffffffffffffffffffffffffffffffffffffffffffffffffffffffffffffe0601f602080948051918291828752018686015e5f8582860101520116010190565b6080810190811067ffffffffffffffff821117610b7a57604052565b7f4e487b71000000000000000000000000000000000000000000000000000000005f52604160045260245ffd5b6060810190811067ffffffffffffffff821117610b7a57604052565b60a0810190811067ffffffffffffffff821117610b7a57604052565b90601f7fffffffffffffffffffffffffffffffffffffffffffffffffffffffffffffffe0910116810190811067ffffffffffffffff821117610b7a57604052565b359073ffffffffffffffffffffffffffffffffffffffff8216820361044557565b67ffffffffffffffff8111610b7a57601f017fffffffffffffffffffffffffffffffffffffffffffffffffffffffffffffffe01660200190565b81601f8201121561044557803590610c9282610c41565b92610ca06040519485610bdf565b8284526020838301011161044557815f926020809301838601378301015290565b90816020910312610445575190565b610d63610d719493610d2f836101209573ffffffffffffffffffffffffffffffffffffffff6080809282815116855282602082015116602086015262ffffff6040820151166040860152606081015160020b6060860152015116910152565b8051151560a0840152602081015160c08401526040015173ffffffffffffffffffffffffffffffffffffffff1660e0830152565b816101008201520190610b1b565b90565b7f80000000000000000000000000000000000000000000000000000000000000008114610da0575f0390565b7f4e487b71000000000000000000000000000000000000000000000000000000005f52601160045260245ffd5b905f9183156110d25773ffffffffffffffffffffffffffffffffffffffff7f00000000000000000000000000000000000000000000000000000000000000001691823b156104455773ffffffffffffffffffffffffffffffffffffffff604051927fa584119400000000000000000000000000000000000000000000000000000000845216918260048201525f8160248183885af180156104c3576110bd575b5081610eec5750506020906004604051809581937f11da60b40000000000000000000000000000000000000000000000000000000083525af1908115610ee05750610eb55750565b610ed69060203d602011610ed9575b610ece8183610bdf565b810190610cc1565b50565b503d610ec4565b604051903d90823e3d90fd5b9293919290919073ffffffffffffffffffffffffffffffffffffffff1684308214611013576020929160649160405195869485937f23b872dd000000000000000000000000000000000000000000000000000000008552600485015273ffffffffffffffffffffffffffffffffffffffff7f000000000000000000000000000000000000000000000000000000000000000016602485015260448401525af1801561100857916020918493610fdb575b505b6004604051809581937f11da60b40000000000000000000000000000000000000000000000000000000083525af1908115610ee05750610eb55750565b610ffa90833d8511611001575b610ff28183610bdf565b8101906112aa565b505f610f9c565b503d610fe8565b6040513d85823e3d90fd5b929050604460209260405194859384927fa9059cbb00000000000000000000000000000000000000000000000000000000845273ffffffffffffffffffffffffffffffffffffffff7f000000000000000000000000000000000000000000000000000000000000000016600485015260248401525af18015611008579160209184936110a0575b50610f9e565b6110b690833d851161100157610ff28183610bdf565b505f61109a565b6110ca9194505f90610bdf565b5f925f610e6d565b50505050565b61110381307f0000000000000000000000000000000000000000000000000000000000000000611210565b905f821261110f575090565b73ffffffffffffffffffffffffffffffffffffffff907f4c085bf1000000000000000000000000000000000000000000000000000000005f521660045260245ffd5b9091801561120b5773ffffffffffffffffffffffffffffffffffffffff7f000000000000000000000000000000000000000000000000000000000000000016803b15610445575f928360649273ffffffffffffffffffffffffffffffffffffffff948560405198899788967f0b0d9c0900000000000000000000000000000000000000000000000000000000885216600487015216602485015260448401525af180156104c3576111ff5750565b5f61120991610bdf565b565b505050565b73ffffffffffffffffffffffffffffffffffffffff809381602094165f52168252602460405f2060405194859384927ff135baaa0000000000000000000000000000000000000000000000000000000084526004840152165afa9081156104c3575f9161127b575090565b90506020813d6020116112a2575b8161129660209383610bdf565b81010312610445575190565b3d9150611289565b9081602091031261044557518015158103610445579056fea164736f6c634300081a000a","linkReferences":{}},"methodIdentifiers":{"manager()":"481c6a75","poolManager()":"dc4c90d3","swap((address,address,uint24,int24,address),(bool,int256,uint160),bytes)":"f3cd914c","unlockCallback(bytes)":"91dd7346"},"id":133}