{"abi":[{"type":"constructor","inputs":[{"name":"_stETH","type":"address","internalType":"address"}],"stateMutability":"nonpayable"},{"type":"function","name":"DOMAIN_SEPARATOR","inputs":[],"outputs":[{"name":"","type":"bytes32","internalType":"bytes32"}],"stateMutability":"view"},{"type":"function","name":"EXCHANGE_RATE","inputs":[],"outputs":[{"name":"","type":"uint256","internalType":"uint256"}],"stateMutability":"view"},{"type":"function","name":"allowance","inputs":[{"name":"","type":"address","internalType":"address"},{"name":"","type":"address","internalType":"address"}],"outputs":[{"name":"","type":"uint256","internalType":"uint256"}],"stateMutability":"view"},{"type":"function","name":"approve","inputs":[{"name":"spender","type":"address","internalType":"address"},{"name":"amount","type":"uint256","internalType":"uint256"}],"outputs":[{"name":"","type":"bool","internalType":"bool"}],"stateMutability":"nonpayable"},{"type":"function","name":"balanceOf","inputs":[{"name":"","type":"address","internalType":"address"}],"outputs":[{"name":"","type":"uint256","internalType":"uint256"}],"stateMutability":"view"},{"type":"function","name":"burn","inputs":[{"name":"from","type":"address","internalType":"address"},{"name":"value","type":"uint256","internalType":"uint256"}],"outputs":[],"stateMutability":"nonpayable"},{"type":"function","name":"decimals","inputs":[],"outputs":[{"name":"","type":"uint8","internalType":"uint8"}],"stateMutability":"view"},{"type":"function","name":"getStETHByWstETH","inputs":[{"name":"_wstETHAmount","type":"uint256","internalType":"uint256"}],"outputs":[{"name":"","type":"uint256","internalType":"uint256"}],"stateMutability":"pure"},{"type":"function","name":"getWstETHByStETH","inputs":[{"name":"_stETHAmount","type":"uint256","internalType":"uint256"}],"outputs":[{"name":"","type":"uint256","internalType":"uint256"}],"stateMutability":"pure"},{"type":"function","name":"mint","inputs":[{"name":"to","type":"address","internalType":"address"},{"name":"value","type":"uint256","internalType":"uint256"}],"outputs":[],"stateMutability":"nonpayable"},{"type":"function","name":"name","inputs":[],"outputs":[{"name":"","type":"string","internalType":"string"}],"stateMutability":"view"},{"type":"function","name":"nonces","inputs":[{"name":"","type":"address","internalType":"address"}],"outputs":[{"name":"","type":"uint256","internalType":"uint256"}],"stateMutability":"view"},{"type":"function","name":"permit","inputs":[{"name":"owner","type":"address","internalType":"address"},{"name":"spender","type":"address","internalType":"address"},{"name":"value","type":"uint256","internalType":"uint256"},{"name":"deadline","type":"uint256","internalType":"uint256"},{"name":"v","type":"uint8","internalType":"uint8"},{"name":"r","type":"bytes32","internalType":"bytes32"},{"name":"s","type":"bytes32","internalType":"bytes32"}],"outputs":[],"stateMutability":"nonpayable"},{"type":"function","name":"stETH","inputs":[],"outputs":[{"name":"","type":"address","internalType":"address"}],"stateMutability":"view"},{"type":"function","name":"stEthPerToken","inputs":[],"outputs":[{"name":"","type":"uint256","internalType":"uint256"}],"stateMutability":"pure"},{"type":"function","name":"symbol","inputs":[],"outputs":[{"name":"","type":"string","internalType":"string"}],"stateMutability":"view"},{"type":"function","name":"tokensPerStEth","inputs":[],"outputs":[{"name":"","type":"uint256","internalType":"uint256"}],"stateMutability":"pure"},{"type":"function","name":"totalSupply","inputs":[],"outputs":[{"name":"","type":"uint256","internalType":"uint256"}],"stateMutability":"view"},{"type":"function","name":"transfer","inputs":[{"name":"to","type":"address","internalType":"address"},{"name":"amount","type":"uint256","internalType":"uint256"}],"outputs":[{"name":"","type":"bool","internalType":"bool"}],"stateMutability":"nonpayable"},{"type":"function","name":"transferFrom","inputs":[{"name":"from","type":"address","internalType":"address"},{"name":"to","type":"address","internalType":"address"},{"name":"amount","type":"uint256","internalType":"uint256"}],"outputs":[{"name":"","type":"bool","internalType":"bool"}],"stateMutability":"nonpayable"},{"type":"function","name":"unwrap","inputs":[{"name":"_wstETHAmount","type":"uint256","internalType":"uint256"}],"outputs":[{"name":"","type":"uint256","internalType":"uint256"}],"stateMutability":"nonpayable"},{"type":"function","name":"wrap","inputs":[{"name":"_stETHAmount","type":"uint256","internalType":"uint256"}],"outputs":[{"name":"","type":"uint256","internalType":"uint256"}],"stateMutability":"nonpayable"},{"type":"event","name":"Approval","inputs":[{"name":"owner","type":"address","indexed":true,"internalType":"address"},{"name":"spender","type":"address","indexed":true,"internalType":"address"},{"name":"amount","type":"uint256","indexed":false,"internalType":"uint256"}],"anonymous":false},{"type":"event","name":"Transfer","inputs":[{"name":"from","type":"address","indexed":true,"internalType":"address"},{"name":"to","type":"address","indexed":true,"internalType":"address"},{"name":"amount","type":"uint256","indexed":false,"internalType":"uint256"}],"anonymous":false}],"bytecode":{"object":"0x61010080604052346104355760208161177280380380916100208285610439565b83398101031261043557516001600160a01b0381168103610435576040519061004a604083610439565b60128252710aee4c2e0e0cac840a6e8c2d6cac8408aa8960731b602083015260405190610078604083610439565b60068252650eee6e88aa8960d31b602083015282516001600160401b038111610366576100a55f5461045c565b601f81116103e6575b506020601f821160011461038557819293945f9261037a575b50508160011b915f199060031b1c1916175f555b81516001600160401b038111610366576100f660015461045c565b601f8111610303575b50602092601f82116001146102a257928192935f92610297575b50508160011b915f199060031b1c1916176001555b60126080524660a0526040515f905f5491816101498461045c565b9182825260208201946001811690815f1461027b5750600114610231575b61017392500382610439565b51902060405160208101917f8b73c3c69bb8fe3d512ecc4cf759cc79239f7b179b0ffacaa9a75d522b39400f835260408201527fc89efdaa54c0f20c7adf612882df0950f5a951637e0307cdcb4c672f298b8bc660608201524660808201523060a082015260a081526101e760c082610439565b51902060c05260e0526040516112bd9081610495823960805181610ae3015260a05181610fd1015260c05181610ff7015260e051818181610197015281816102b301526106800152f35b505f80805290915f805160206117528339815191525b81831061025f57505090602061017392820101610167565b6020919350806001915483858801015201910190918392610247565b60ff191686525061017392151560051b82016020019050610167565b015190505f80610119565b601f1982169360015f52805f20915f5b8681106102eb57508360019596106102d3575b505050811b0160015561012e565b01515f1960f88460031b161c191690555f80806102c5565b919260206001819286850151815501940192016102b2565b60015f527fb10e2d527612073b26eecdfd717e6a320cf44b4afac2b0732d9fcbe2b7fa0cf6601f830160051c8101916020841061035c575b601f0160051c01905b81811061035157506100ff565b5f8155600101610344565b909150819061033b565b634e487b7160e01b5f52604160045260245ffd5b015190505f806100c7565b601f198216905f8052805f20915f5b8181106103ce575095836001959697106103b6575b505050811b015f556100db565b01515f1960f88460031b161c191690555f80806103a9565b9192602060018192868b015181550194019201610394565b5f80525f80516020611752833981519152601f830160051c8101916020841061042b575b601f0160051c01905b81811061042057506100ae565b5f8155600101610413565b909150819061040a565b5f80fd5b601f909101601f19168101906001600160401b0382119082101761036657604052565b90600182811c9216801561048a575b602083101461047657565b634e487b7160e01b5f52602260045260245ffd5b91607f169161046b56fe6080806040526004361015610012575f80fd5b5f3560e01c908163035faf8214610e095750806306fdde0314610d49578063095ea7b314610ca657806314a8bd0d14610c6657806318160ddd14610c2b57806323b872dd14610b07578063313ce56714610aac5780633644e51514610a7457806340c10f1914610a3157806370a08231146109ce5780637ecebe001461096b5780639576a0c81461092b57806395d89b41146108155780639dc29fac146107d0578063a9059cbb1461071c578063b0e38900146106e0578063bb2952fc146106a4578063c1fe3e4814610636578063d505accf14610394578063dd62ed3e14610308578063de0e9a3e1461021e5763ea598cb01461010e575f80fd5b3461021a5760207ffffffffffffffffffffffffffffffffffffffffffffffffffffffffffffffffc36011261021a57600435604051907f23b872dd0000000000000000000000000000000000000000000000000000000082523360048301523060248301528060448301526020826064815f73ffffffffffffffffffffffffffffffffffffffff7f0000000000000000000000000000000000000000000000000000000000000000165af190811561020f576020926101d2926101e4575b50611166565b6101dc81336111e3565b604051908152f35b61020390843d8611610208575b6101fb8183610e98565b8101906111cb565b6101cc565b503d6101f1565b6040513d5f823e3d90fd5b5f80fd5b3461021a5760207ffffffffffffffffffffffffffffffffffffffffffffffffffffffffffffffffc36011261021a5761026260043561025d813361124a565b61119b565b604051907fa9059cbb0000000000000000000000000000000000000000000000000000000082523360048301528060248301526020826044815f73ffffffffffffffffffffffffffffffffffffffff7f0000000000000000000000000000000000000000000000000000000000000000165af191821561020f576020926102ed575b50604051908152f35b61030390833d8511610208576101fb8183610e98565b6102e4565b3461021a5760407ffffffffffffffffffffffffffffffffffffffffffffffffffffffffffffffffc36011261021a5761033f610f4e565b73ffffffffffffffffffffffffffffffffffffffff61035c610f71565b91165f52600460205273ffffffffffffffffffffffffffffffffffffffff60405f2091165f52602052602060405f2054604051908152f35b3461021a5760e07ffffffffffffffffffffffffffffffffffffffffffffffffffffffffffffffffc36011261021a576103cb610f4e565b6103d3610f71565b6044356064359260843560ff811680910361021a574285106105d85760805f9160209373ffffffffffffffffffffffffffffffffffffffff610413610fce565b91169687855260058652604085209889549960018b0190556040519073ffffffffffffffffffffffffffffffffffffffff888301937f6e71edae12b1b97f4d1f60370fef10105fa2faae0126114a169c64845d6126c985528b6040850152169a8b6060840152898784015260a083015260c082015260c0815261049760e082610e98565b51902060405190868201927f1901000000000000000000000000000000000000000000000000000000000000845260228301526042820152604281526104de606282610e98565b519020906040519182528482015260a435604082015260c435606082015282805260015afa1561020f5773ffffffffffffffffffffffffffffffffffffffff5f5116801515806105cf575b15610571577f8c5be1e5ebec7d5bd14f71427d1e84f3dd0314c0f7b2291e5b200ac8c7c3b925916020915f526004825260405f20855f5282528060405f2055604051908152a3005b60646040517f08c379a000000000000000000000000000000000000000000000000000000000815260206004820152600e60248201527f494e56414c49445f5349474e45520000000000000000000000000000000000006044820152fd5b50828114610529565b60646040517f08c379a000000000000000000000000000000000000000000000000000000000815260206004820152601760248201527f5045524d49545f444541444c494e455f455850495245440000000000000000006044820152fd5b3461021a575f7ffffffffffffffffffffffffffffffffffffffffffffffffffffffffffffffffc36011261021a57602060405173ffffffffffffffffffffffffffffffffffffffff7f0000000000000000000000000000000000000000000000000000000000000000168152f35b3461021a5760207ffffffffffffffffffffffffffffffffffffffffffffffffffffffffffffffffc36011261021a5760206101dc60043561119b565b3461021a5760207ffffffffffffffffffffffffffffffffffffffffffffffffffffffffffffffffc36011261021a5760206101dc600435611166565b3461021a5760407ffffffffffffffffffffffffffffffffffffffffffffffffffffffffffffffffc36011261021a57610753610f4e565b73ffffffffffffffffffffffffffffffffffffffff60243591335f52600360205260405f20610783848254610f94565b90551690815f52600360205260405f208181540190556040519081527fddf252ad1be2c89b69c2b068fc378daa952ba7f163c4a11628f55a4df523b3ef60203392a3602060405160018152f35b3461021a5760407ffffffffffffffffffffffffffffffffffffffffffffffffffffffffffffffffc36011261021a5761081361080a610f4e565b6024359061124a565b005b3461021a575f7ffffffffffffffffffffffffffffffffffffffffffffffffffffffffffffffffc36011261021a576040515f60015461085381610e47565b80845290600181169081156108e9575060011461088b575b6108878361087b81850382610e98565b60405191829182610f06565b0390f35b60015f9081527fb10e2d527612073b26eecdfd717e6a320cf44b4afac2b0732d9fcbe2b7fa0cf6939250905b8082106108cf5750909150810160200161087b61086b565b9192600181602092548385880101520191019092916108b7565b7fffffffffffffffffffffffffffffffffffffffffffffffffffffffffffffff001660208086019190915291151560051b8401909101915061087b905061086b565b3461021a575f7ffffffffffffffffffffffffffffffffffffffffffffffffffffffffffffffffc36011261021a576020604051670c9dbd5d80e68ba28152f35b3461021a5760207ffffffffffffffffffffffffffffffffffffffffffffffffffffffffffffffffc36011261021a5773ffffffffffffffffffffffffffffffffffffffff6109b7610f4e565b165f526005602052602060405f2054604051908152f35b3461021a5760207ffffffffffffffffffffffffffffffffffffffffffffffffffffffffffffffffc36011261021a5773ffffffffffffffffffffffffffffffffffffffff610a1a610f4e565b165f526003602052602060405f2054604051908152f35b3461021a5760407ffffffffffffffffffffffffffffffffffffffffffffffffffffffffffffffffc36011261021a57610813610a6b610f4e565b602435906111e3565b3461021a575f7ffffffffffffffffffffffffffffffffffffffffffffffffffffffffffffffffc36011261021a5760206101dc610fce565b3461021a575f7ffffffffffffffffffffffffffffffffffffffffffffffffffffffffffffffffc36011261021a57602060405160ff7f0000000000000000000000000000000000000000000000000000000000000000168152f35b3461021a5760607ffffffffffffffffffffffffffffffffffffffffffffffffffffffffffffffffc36011261021a57610b3e610f4e565b610b46610f71565b7fddf252ad1be2c89b69c2b068fc378daa952ba7f163c4a11628f55a4df523b3ef602073ffffffffffffffffffffffffffffffffffffffff80604435951693845f526004835260405f208233165f52835260405f2054867fffffffffffffffffffffffffffffffffffffffffffffffffffffffffffffffff8203610c04575b5050845f526003835260405f20610bdd878254610f94565b90551693845f526003825260405f20818154019055604051908152a3602060405160018152f35b610c0d91610f94565b855f526004845260405f208333165f52845260405f20558686610bc5565b3461021a575f7ffffffffffffffffffffffffffffffffffffffffffffffffffffffffffffffffc36011261021a576020600254604051908152f35b3461021a575f7ffffffffffffffffffffffffffffffffffffffffffffffffffffffffffffffffc36011261021a576020604051670f43fc2c04ee00008152f35b3461021a5760407ffffffffffffffffffffffffffffffffffffffffffffffffffffffffffffffffc36011261021a57610cdd610f4e565b73ffffffffffffffffffffffffffffffffffffffff60243591335f52600460205260405f208282165f526020528260405f205560405192835216907f8c5be1e5ebec7d5bd14f71427d1e84f3dd0314c0f7b2291e5b200ac8c7c3b92560203392a3602060405160018152f35b3461021a575f7ffffffffffffffffffffffffffffffffffffffffffffffffffffffffffffffffc36011261021a576040515f8054610d8681610e47565b80845290600181169081156108e95750600114610dad576108878361087b81850382610e98565b5f8080527f290decd9548b62a8d60345a988386fc84ba6bc95484008f6362f93160ef3e563939250905b808210610def5750909150810160200161087b61086b565b919260018160209254838588010152019101909291610dd7565b3461021a575f7ffffffffffffffffffffffffffffffffffffffffffffffffffffffffffffffffc36011261021a5780670f43fc2c04ee000060209252f35b90600182811c92168015610e8e575b6020831014610e6157565b7f4e487b71000000000000000000000000000000000000000000000000000000005f52602260045260245ffd5b91607f1691610e56565b90601f7fffffffffffffffffffffffffffffffffffffffffffffffffffffffffffffffe0910116810190811067ffffffffffffffff821117610ed957604052565b7f4e487b71000000000000000000000000000000000000000000000000000000005f52604160045260245ffd5b7fffffffffffffffffffffffffffffffffffffffffffffffffffffffffffffffe0601f602060409481855280519182918282880152018686015e5f8582860101520116010190565b6004359073ffffffffffffffffffffffffffffffffffffffff8216820361021a57565b6024359073ffffffffffffffffffffffffffffffffffffffff8216820361021a57565b91908203918211610fa157565b7f4e487b71000000000000000000000000000000000000000000000000000000005f52601160045260245ffd5b467f000000000000000000000000000000000000000000000000000000000000000003611019577f000000000000000000000000000000000000000000000000000000000000000090565b6040515f905f54918161102b84610e47565b9182825260208201946001811690815f1461112c57506001146110cf575b61105592500382610e98565b51902060405160208101917f8b73c3c69bb8fe3d512ecc4cf759cc79239f7b179b0ffacaa9a75d522b39400f835260408201527fc89efdaa54c0f20c7adf612882df0950f5a951637e0307cdcb4c672f298b8bc660608201524660808201523060a082015260a081526110c960c082610e98565b51902090565b505f80805290917f290decd9548b62a8d60345a988386fc84ba6bc95484008f6362f93160ef3e5635b81831061111057505090602061105592820101611049565b60209193508060019154838588010152019101909183926110f8565b7fffffffffffffffffffffffffffffffffffffffffffffffffffffffffffffff001686525061105592151560051b82016020019050611049565b801561119657670de0b6b3a76400008102908104670de0b6b3a764000003610fa157670f43fc2c04ee0000900490565b505f90565b801561119657670f43fc2c04ee00008102908104670f43fc2c04ee000003610fa157670de0b6b3a7640000900490565b9081602091031261021a5751801515810361021a5790565b600254828101809111610fa157602073ffffffffffffffffffffffffffffffffffffffff5f937fddf252ad1be2c89b69c2b068fc378daa952ba7f163c4a11628f55a4df523b3ef9360025516938484526003825260408420818154019055604051908152a3565b907fddf252ad1be2c89b69c2b068fc378daa952ba7f163c4a11628f55a4df523b3ef602073ffffffffffffffffffffffffffffffffffffffff5f941692838552600382526040852061129d828254610f94565b90558060025403600255604051908152a356fea164736f6c634300081a000a290decd9548b62a8d60345a988386fc84ba6bc95484008f6362f93160ef3e563","linkReferences":{}},"methodIdentifiers":{"DOMAIN_SEPARATOR()":"3644e515","EXCHANGE_RATE()":"14a8bd0d","allowance(address,address)":"dd62ed3e","approve(address,uint256)":"095ea7b3","balanceOf(address)":"70a08231","burn(address,uint256)":"9dc29fac","decimals()":"313ce567","getStETHByWstETH(uint256)":"bb2952fc","getWstETHByStETH(uint256)":"b0e38900","mint(address,uint256)":"40c10f19","name()":"06fdde03","nonces(address)":"7ecebe00","permit(address,address,uint256,uint256,uint8,bytes32,bytes32)":"d505accf","stETH()":"c1fe3e48","stEthPerToken()":"035faf82","symbol()":"95d89b41","tokensPerStEth()":"9576a0c8","totalSupply()":"18160ddd","transfer(address,uint256)":"a9059cbb","transferFrom(address,address,uint256)":"23b872dd","unwrap(uint256)":"de0e9a3e","wrap(uint256)":"ea598cb0"},"id":132}